:100000000C942A000C9447000C9447000C94470071
:100010000C9447000C9447000C9447000C94470044
:100020000C9447000C9447000C9447000C94470034
:100030000C9447000C9447000C9447000C94470024
:100040000C9447000C9447000C9447000C94470014
:100050000C94470011241FBECFE5D8E0DEBFCDBF12
:1000600011E0A0E6B0E0E0E8FFE002C005900D92EC
:10007000AA37B107D9F722E0AAE7B1E001C01D9283
:10008000A432B207E1F70E9417040C94BE070C9447
:10009000000087B380EF87BB8FE088BB089540E006
:1000A00050E037C080EF87BB9A012C5F3F4F81E063
:1000B00090E002C0880F991F2A95E2F7809588BBCF
:1000C00020E030E021C086B390E0022E02C095957A
:1000D00087950A94E2F780FD15C086B390E0022E62
:1000E00002C0959587950A94E2F780FFF6CF220F1C
:1000F000331F220F331F2B593F4FF901E40FF51F18
:10010000808108952F5F3F4F24303105E4F24F5F27
:100110005F4F4430510534F2C2CF85BB8BB38E7F25
:100120008BBB8BB38D7F8BBB8BB384608BBB89EF19
:1001300090E00197F1F700C000008BB38B7F8BBB81
:1001400089EF90E00197F1F700C00000089585BBAA
:100150008BB381608BBB8BB38D7F8BBB8BB3846088
:100160008BBB89EF90E00197F1F700C000008BB3E3
:100170008B7F8BBB89EF90E00197F1F700C0000007
:1001800008958FEF84BB8AB387608ABB87E893E1C9
:100190000197F1F700C0000088E30E948D008EE017
:1001A0000E948D0081E00E948D0083EF91E0019715
:1001B000F1F700C0000008950F931F93CF93DF93D2
:1001C0008C01C0E0D0E009C00E94A70087EA91E658
:1001D0000197F1F700C000002196F801EC0FFD1F18
:1001E00080818111F1CFDF91CF911F910F910895FF
:1001F00081E00E948D0083EC99E00197F1F700C047
:1002000000000895611102C0805801C080540E940E
:100210008D00089581B3836081BB82B38C7F82BBE4
:10022000089582B3816082BB82B38D7F82BB0895C3
:1002300082B3826082BB82B38E7F82BB0895CF93EC
:10024000DF93CAE7D1E081E08883EBE7F1E081E466
:100250009CE69183808389E690E09383828385E0A6
:10026000E5E7F0E0A5E8B1E001900D928A95E1F7AD
:1002700082E0898B85E0EAE7F0E0ACE8B1E001904C
:100280000D928A95E1F785E0EFE7F0E0A6E9B1E0AD
:1002900001900D928A95E1F783E08AA385E0E4E876
:1002A000F0E0ADE9B1E001900D928A95E1F785E0CB
:1002B000E9E8F0E0A7EAB1E001900D928A95E1F754
:1002C00023E030E014C041E1429FC001439F900D04
:1002D0001124FC01E658FE4F1082FC01E558FE4F48
:1002E0001082FC01EB57FE4F10822F5F3F4F2A30E8
:1002F00031054CF3DF91CF91089520E030E00DC03F
:1003000081E1829FF001839FF00D1124E658FE4F9A
:100310008081882341F02F5F3F4F2A30310584F3DD
:100320008FEF9FEF0895822F932F089520E030E004
:100330000DC091E1929FF001939FF00D1124E658BA
:10034000FE4F9081981741F02F5F3F4F2A303105C3
:1003500084F38FEF9FEF0895822F932F0895FF92DC
:100360000F931F93CF93DF93EC01062F10E00E94B1
:100370004F008823E1F3833221F4C10FD11D18828D
:100380002CC08A3289F4112379F01150FE01E10F5B
:10039000F11D108280E10E948D0080E20E94A70082
:1003A00080E10E948D00E3CF412F50E0202F30E00C
:1003B0002150310942175307D4F68033C0F28A33F3
:1003C000B0F6FF24F394F10EFE01E10FF11D8083DE
:1003D0008AE20E94A7001F2DCACFDF91CF911F9103
:1003E0000F91FF900895CF93DF930E947D018F3F7F
:1003F0002FEF920781F40E94F8008EE890E00E94AF
:10040000DC008FE39DE023E0815090402040E1F745
:1004100000C0000044C021E1289FE001299FD00DC9
:100420001124FE01E658FE4F21E0280F20839E0193
:1004300025583E4F01969F938F9388E990E09F93B4
:100440008F931F928AE08F933F932F930E94C6044D
:100450000E94F8008FE990E00E94DC0061E080E0FB
:100460000E94020166E0CE018B579E4F0E94AF01B1
:100470000E94F80089EA90E00E94DC008FE39DE092
:1004800023E0815090402040E1F700C000008DB78C
:100490009EB708960FB6F8949EBF0FBE8DBFDF9132
:1004A000CF9108950F931F93CF93DF9300D000D087
:1004B00000D0CDB7DEB70E94F80085EB90E00E9437
:1004C000DC0061E080E00E94020166E0CE0101965E
:1004D0000E94AF01CE0101960E9497040E949601EE
:1004E0008C01019681F40E94F8008FEB90E00E944D
:1004F000DC008FE39DE023E0815090402040E1F755
:1005000000C0000024C00E94F8008FE990E00E9423
:10051000DC0061E080E00E94020121E1209FC00137
:10052000219F900D112466E08B579E4F0E94AF01D2
:100530000E94F8008CEC90E00E94DC008FE39DE0CC
:1005400023E0815090402040E1F700C00000269653
:100550000FB6F894DEBF0FBECDBFDF91CF911F91D4
:100560000F910895CF93DF9300D000D000D0CDB786
:10057000DEB70E94F80085EB90E00E94DC0061E0AD
:1005800080E00E94020166E0CE0101960E94AF0168
:10059000CE0101960E9497040E9496018F3F2FEF93
:1005A000920781F40E94F8008FEB90E00E94DC003B
:1005B0008FE39DE023E0815090402040E1F700C0B0
:1005C000000021C041E1489F9001499F300D112456
:1005D000F901E658FE4F1082F901E558FE4F1082EE
:1005E000F901EB57FE4F10820E94F80085ED90E074
:1005F0000E94DC008FE39DE023E08150904020408A
:10060000E1F700C0000026960FB6F894DEBF0FBEDB
:10061000CDBFDF91CF910895EF92FF920F931F937B
:10062000CF93DF93CDB7DEB760970FB6F894DEBFF8
:100630000FBECDBF00E010E03FC081E1809FF00120
:10064000819FF00D1124E658FE4F8081882391F19F
:100650000E94F80021E1209FC001219F900D1124EC
:100660009C0125583E4FFC01E658FE4F80813F9388
:100670002F931F928F938EED90E09F938F931F92F5
:1006800080E18F93CE0101967C019F938F930E940E
:10069000C604C7010E94DC009FE72AE186E0915072
:1006A00020408040E1F700C000000FB6F894DEBFA4
:1006B0000FBECDBF0F5F1F4F0A3011050CF4BDCF29
:1006C00060960FB6F894DEBF0FBECDBFDF91CF911D
:1006D0001F910F91FF90EF900895FF920F931F933A
:1006E000CF93DF93CDB7DEB766970FB6F894DEBF32
:1006F0000FBECDBFF12C0E94F80089EE90E00E9461
:10070000DC0061E080E00E94020166E0CE0101961B
:100710000E94AF01CE0101960E9497040E949601AB
:100720008C01019681F40E94F8008FEB90E00E940A
:10073000DC008FE39DE023E0815090402040E1F712
:1007400000C00000D8CF0E94F80088EF90E00E941F
:10075000DC0061E080E00E94020166E0CE010196CB
:100760000E94AF0181E1809FB001819F700D112433
:100770006B577E4FCE0101960E94B504892B71F50F
:100780000E94F80021E1209FC001219F900D1124BB
:1007900085589E4F9F938F9384E091E09F938F9312
:1007A0001F9280E18F938E01095F1F4F1F930F935C
:1007B0000E94C604C8010E94DC000E9411018FEB58
:1007C00097E229E0815090402040E1F700C000000E
:1007D0000FB6F894DEBF0FBECDBF1DC0F3940E94CC
:1007E000F8008FE091E00E94DC000E9418019FE376
:1007F0002DE083E0915020408040E1F700C00000F0
:1008000092E09F1508F077CF0E94F8008BE191E00D
:100810000E94DC00FFCF66960FB6F894DEBF0FBED5
:10082000CDBFDF91CF911F910F91FF900895CF938E
:10083000DF93CDB7DEB72A970FB6F894DEBF0FBEB1
:10084000CDBF0E94C1000E9449000E940A010E947F
:100850001F0110E00E94F80089E291E00E94DC0094
:1008600061E080E00E9402016AE0CE0101960E94F0
:10087000AF0160E670E0CE0101960E94B504892BBD
:1008800091F40E94F8008BE391E00E94DC000E944A
:1008900011012FE38DE093E0215080409040E1F77B
:1008A00000C000001BC01F5F0E94F80086E491E0BA
:1008B0000E94DC000E9418012FE38DE093E021509C
:1008C00080409040E1F700C00000133018F20E9411
:1008D000F80081E591E00E94DC00FFCF0E94F80063
:1008E00080E691E00E94DC0061E080E00E9402016D
:1008F0008DE691E00E94DC000E944F00813419F4E3
:100900000E94F301EBCF823419F40E945202E6CF29
:10091000833419F40E94B202E1CF843419F40E94A6
:100920000C03DCCF8332D1F60E946D03FFCFFC01B4
:1009300088279927E89421912032E9F3293010F093
:100940002E30C8F32B3241F02D3239F4689404C0B4
:100950000E94BE04820F911D219120532A30C0F3C2
:100960001EF4909581959F4F0895FB01DC018D91B8
:10097000019080190110D9F3990B08957AE0979F9F
:10098000902D879F802D910D11240895AEE0B0E049
:10099000ECECF4E00C9495070D891E898F89988DF5
:1009A00026E02C831A83098397FF02C080E090E839
:1009B00001979E838D83AE01455E5F4F698D7A8D71
:1009C000CE0101960E94F6044D815E8157FD0AC05A
:1009D0002F813885421753070CF49A01F801E20F72
:1009E000F31F10822E96E4E00C94B107ABE0B0E068
:1009F000ECEFF4E00C9487076C017B018A01FC01A9
:100A000017821682838181FFCCC1CE0101963C0101
:100A1000F6019381F70193FD859193FF81917F0109
:100A2000882309F4BAC1853239F493FD859193FF87
:100A300081917F01853229F4B60190E00E94ED0694
:100A4000E7CF912C212C312CFFE1F315D8F08B321C
:100A500079F038F4803279F08332A1F4232D2061CB
:100A60001DC08D3261F0803369F4232D216016C0E2
:100A7000832D8260382EE32DE4603E2E2AC0F32DB4
:100A8000F8601DC037FC2DC020ED280F2A3040F043
:100A90008E32B9F436FC81C1232D2064322E19C068
:100AA00036FE06C08AE0989E200D1124922E11C0B9
:100AB000EAE02E9E200D1124222EF32DF0623F2E0F
:100AC00008C08C3621F4832D8068382E02C0883609
:100AD00041F4F70193FD859193FF81917F0181118D
:100AE000B3CF982F9F7D9554933028F40C5F1F4F00
:100AF0009FE399830DC0833631F0833771F08335DE
:100B000009F059C021C0F801808189830E5F1F4F11
:100B100088248394912C530113C02801F2E04F0ED6
:100B2000511CF801A080B18036FE03C0692D70E031
:100B300002C06FEF7FEFC5010E94E2064C01820107
:100B4000F32DFF773F2E16C0280122E0420E511CE4
:100B5000F801A080B18036FE03C0692D70E002C0AC
:100B60006FEF7FEFC5010E94D7064C01F32DF068AF
:100B70003F2E820133FC1BC0822D90E0881699061F
:100B8000B0F4B60180E290E00E94ED062A94F4CF22
:100B9000F50137FC859137FE81915F01B60190E048
:100BA0000E94ED0621102A9421E0821A91088114F6
:100BB000910471F7E8C0843611F0893641F5F801E7
:100BC00037FE07C060817181828193810C5F1F4F66
:100BD00008C060817181072E000C880B990B0E5F95
:100BE0001F4FF32DFF763F2E97FF09C090958095FC
:100BF000709561957F4F8F4F9F4FF0683F2E2AE091
:100C000030E0A3010E942907882E861845C0853749
:100C100031F4232D2F7EB22E2AE030E025C0932D13
:100C2000997FB92E8F36C1F018F4883579F0B5C0A8
:100C3000803719F0883721F0B0C0E92FE061BE2E6F
:100C4000B4FE0DC0FB2DF460BF2E09C034FE0AC0F7
:100C5000292F2660B22E06C028E030E005C020E132
:100C600030E002C020E132E0F801B7FE07C0608149
:100C70007181828193810C5F1F4F06C060817181F9
:100C800080E090E00E5F1F4FA3010E942907882E8D
:100C90008618FB2DFF773F2E36FE0DC0232D2E7FAD
:100CA000A22E891458F434FE0BC032FC09C0832DE7
:100CB0008E7EA82E05C0B82CA32C03C0B82C01C072
:100CC000B92CA4FE0FC0FE01E80DF11D8081803318
:100CD00021F49A2D997EA92E09C0A2FE06C0B394D4
:100CE000B39404C08A2D867809F0B394A3FC11C094
:100CF000A0FE06C0B21488F4280C922C9B180EC0DB
:100D0000B21460F4B60180E290E00E94ED06B39464
:100D1000F7CFB21418F42B1802C0982C212CA4FE83
:100D200010C0B60180E390E00E94ED06A2FE17C05D
:100D3000A1FC03C088E790E002C088E590E0B6011E
:100D40000CC08A2D867859F0A1FE02C08BE201C04A
:100D500080E2A7FC8DE2B60190E00E94ED068914C6
:100D600038F4B60180E390E00E94ED069A94F7CF44
:100D70008A94F301E80DF11D8081B60190E00E9494
:100D8000ED068110F5CF222009F442CEB60180E2B3
:100D900090E00E94ED062A94F6CFF60186819781B5
:100DA00002C08FEF9FEF2B96E2E10C94A307FC01AA
:100DB0000590615070400110D8F7809590958E0F86
:100DC0009F1F0895FC016150704001900110D8F7F9
:100DD000809590958E0F9F1F08950F931F93CF932B
:100DE000DF93FB01238121FD03C08FEF9FEF2CC018
:100DF00022FF16C04681578124813581421753074F
:100E000044F4A081B1819D012F5F3F4F3183208346
:100E10008C93268137812F5F3F4F3783268314C001
:100E20008B01EC01FB010084F185E02D0995892BF4
:100E3000E1F6D80116968D919C9117970196179619
:100E40009C938E931697CE01DF91CF911F910F91B6
:100E50000895FA01AA27283051F1203181F1E89450
:100E60006F936E7F6E5F7F4F8F4F9F4FAF4FB1E09D
:100E70003ED0B4E03CD0670F781F891F9A1FA11D98
:100E8000680F791F8A1F911DA11D6A0F711D811D99
:100E9000911DA11D20D009F468943F912AE0269F5E
:100EA00011243019305D3193DEF6CF010895462FBD
:100EB0004770405D4193B3E00FD0C9F7F6CF462F9E
:100EC0004F70405D4A3318F0495D31FD4052419307
:100ED00002D0A9F7EACFB4E0A695979587957795C4
:100EE0006795BA95C9F700976105710508959B014B
:100EF000AC010A2E06945795479537952795BA95D4
:100F0000C9F7620F731F841F951FA01D08952F92AC
:100F10003F924F925F926F927F928F929F92AF9289
:100F2000BF92CF92DF92EF92FF920F931F93CF93D6
:100F3000DF93CDB7DEB7CA1BDB0B0FB6F894DEBF6D
:100F40000FBECDBF09942A88398848885F846E8493
:100F50007D848C849B84AA84B984C884DF80EE80DD
:100F6000FD800C811B81AA81B981CE0FD11D0FB6E6
:100F7000F894DEBF0FBECDBFED010895F894FFCF0A
:100F80003132333400313233413435364237383937
:100F9000432A30234431313131004F6D61720032C8
:100FA00032323200536172610033333333004E6F9B
:100FB0002073706163652100557365722564004E6E
:100FC000657720506173733A0055736572204164F0
:100FD0006465642100456E7465722049443A004995
:100FE00044204E6F7420466F756E640055706461C6
:100FF000746564210044656C65746564210049442E
:101000003A2564204E3A257300456E74657220556A
:101010007365722049443A00456E746572205061D0
:1010200073733A0057656C636F6D652025730057C5
:10103000726F6E6720506173732100557365722063
:10104000426C6F636B65642100456E746572204D60
:101050006173746572204B65793A004D61737465F4
:1010600072204F4B210057726F6E67204B657921BC
:10107000004163636573732044656E696564210094
:10108000413A41646420423A4564697400433A44F9
:0A109000656C20443A4C697374004B
:00000001FF
